{
  "_format": "hh3-artifact-1",
  "contractName": "AssetRegistry",
  "sourceName": "contracts/AssetRegistry.sol",
  "abi": [
    {
      "anonymous": false,
      "inputs": [
        {
          "indexed": true,
          "internalType": "uint256",
          "name": "assetId",
          "type": "uint256"
        },
        {
          "indexed": true,
          "internalType": "address",
          "name": "owner",
          "type": "address"
        },
        {
          "indexed": false,
          "internalType": "string",
          "name": "description",
          "type": "string"
        },
        {
          "indexed": false,
          "internalType": "uint256",
          "name": "timestamp",
          "type": "uint256"
        }
      ],
      "name": "AssetRegistered",
      "type": "event"
    },
    {
      "anonymous": false,
      "inputs": [
        {
          "indexed": true,
          "internalType": "uint256",
          "name": "assetId",
          "type": "uint256"
        },
        {
          "indexed": true,
          "internalType": "address",
          "name": "previousOwner",
          "type": "address"
        },
        {
          "indexed": true,
          "internalType": "address",
          "name": "newOwner",
          "type": "address"
        },
        {
          "indexed": false,
          "internalType": "uint256",
          "name": "timestamp",
          "type": "uint256"
        }
      ],
      "name": "OwnershipTransferred",
      "type": "event"
    },
    {
      "inputs": [
        {
          "internalType": "uint256",
          "name": "assetId",
          "type": "uint256"
        }
      ],
      "name": "exists",
      "outputs": [
        {
          "internalType": "bool",
          "name": "",
          "type": "bool"
        }
      ],
      "stateMutability": "view",
      "type": "function"
    },
    {
      "inputs": [
        {
          "internalType": "uint256",
          "name": "assetId",
          "type": "uint256"
        }
      ],
      "name": "getAsset",
      "outputs": [
        {
          "internalType": "uint256",
          "name": "id",
          "type": "uint256"
        },
        {
          "internalType": "address",
          "name": "owner",
          "type": "address"
        },
        {
          "internalType": "string",
          "name": "description",
          "type": "string"
        },
        {
          "internalType": "uint256",
          "name": "registeredAt",
          "type": "uint256"
        }
      ],
      "stateMutability": "view",
      "type": "function"
    },
    {
      "inputs": [],
      "name": "nextId",
      "outputs": [
        {
          "internalType": "uint256",
          "name": "",
          "type": "uint256"
        }
      ],
      "stateMutability": "view",
      "type": "function"
    },
    {
      "inputs": [
        {
          "internalType": "string",
          "name": "description",
          "type": "string"
        }
      ],
      "name": "registerAsset",
      "outputs": [
        {
          "internalType": "uint256",
          "name": "",
          "type": "uint256"
        }
      ],
      "stateMutability": "nonpayable",
      "type": "function"
    },
    {
      "inputs": [
        {
          "internalType": "uint256",
          "name": "assetId",
          "type": "uint256"
        },
        {
          "internalType": "address",
          "name": "newOwner",
          "type": "address"
        }
      ],
      "name": "transferAsset",
      "outputs": [],
      "stateMutability": "nonpayable",
      "type": "function"
    }
  ],
  "bytecode": "0x608060405260016002553480156013575f5ffd5b506107df806100215f395ff3fe608060405234801561000f575f5ffd5b5060043610610055575f3560e01c80631ec04081146100595780634f558e791461007f57806361b8ce8c146100b1578063eac8f5b8146100b9578063fa62ee8d146100dc575b5f5ffd5b61006c6100673660046104eb565b6100f1565b6040519081526020015b60405180910390f35b6100a161008d366004610559565b5f9081526001602052604090205460ff1690565b6040519015158152602001610076565b60025461006c565b6100cc6100c7366004610559565b61027a565b6040516100769493929190610570565b6100ef6100ea3660046105c2565b610395565b005b600280545f9182919082610104836105fb565b909155505f8181526001602052604090205490915060ff161561015f5760405162461bcd60e51b815260206004820152600e60248201526d416c72656164792065786973747360901b60448201526064015b60405180910390fd5b5f6040518060800160405280838152602001336001600160a01b0316815260200186868080601f0160208091040260200160405190810160405280939291908181526020018383808284375f9201829052509385525050426020938401525084815280825260409081902083518155918301516001830180546001600160a01b0319166001600160a01b039092169190911790558201519192508291600282019061020a90826106b7565b50606091909101516003909101555f82815260016020819052604091829020805460ff1916909117905551339083907f17bfbb947caca86ac77ea06397ced8c4f77a1a6c82a21b5a05a738ceddc1f6609061026a90899089904290610772565b60405180910390a3509392505050565b5f818152600160205260408120548190606090829060ff166102ce5760405162461bcd60e51b815260206004820152600d60248201526c4173736574206d697373696e6760981b6044820152606401610156565b5f8581526020819052604090208054600182015460038301546002840180546001600160a01b0390931692909190829061030790610633565b80601f016020809104026020016040519081016040528092919081815260200182805461033390610633565b801561037e5780601f106103555761010080835404028352916020019161037e565b820191905f5260205f20905b81548152906001019060200180831161036157829003601f168201915b505050505091509450945094509450509193509193565b5f8281526001602052604090205460ff166103e25760405162461bcd60e51b815260206004820152600d60248201526c4173736574206d697373696e6760981b6044820152606401610156565b6001600160a01b03811661042c5760405162461bcd60e51b815260206004820152601160248201527024b73b30b634b2103732bb9037bbb732b960791b6044820152606401610156565b5f82815260208190526040902060018101546001600160a01b031633146104825760405162461bcd60e51b815260206004820152600a60248201526927b7363c9037bbb732b960b11b6044820152606401610156565b6001810180546001600160a01b038481166001600160a01b03198316811790935560405191169190829086907f06f354ec7b9d2ca4e029f73ccb9119943a48c3295704dd66ca8beda0c7bae33f906104dd9042815260200190565b60405180910390a450505050565b5f5f602083850312156104fc575f5ffd5b823567ffffffffffffffff811115610512575f5ffd5b8301601f81018513610522575f5ffd5b803567ffffffffffffffff811115610538575f5ffd5b856020828401011115610549575f5ffd5b6020919091019590945092505050565b5f60208284031215610569575f5ffd5b5035919050565b84815260018060a01b0384166020820152608060408201525f8351806080840152806020860160a085015e5f60a0828501015260a0601f19601f83011684010191505082606083015295945050505050565b5f5f604083850312156105d3575f5ffd5b8235915060208301356001600160a01b03811681146105f0575f5ffd5b809150509250929050565b5f6001820161061857634e487b7160e01b5f52601160045260245ffd5b5060010190565b634e487b7160e01b5f52604160045260245ffd5b600181811c9082168061064757607f821691505b60208210810361066557634e487b7160e01b5f52602260045260245ffd5b50919050565b601f8211156106b257805f5260205f20601f840160051c810160208510156106905750805b601f840160051c820191505b818110156106af575f815560010161069c565b50505b505050565b815167ffffffffffffffff8111156106d1576106d161061f565b6106e5816106df8454610633565b8461066b565b6020601f821160018114610717575f83156107005750848201515b5f19600385901b1c1916600184901b1784556106af565b5f84815260208120601f198516915b828110156107465787850151825560209485019460019092019101610726565b508482101561076357868401515f19600387901b60f8161c191681555b50505050600190811b01905550565b60408152826040820152828460608301375f606084830101525f6060601f19601f860116830101905082602083015294935050505056fea26469706673582212205e0dc581fb2caa1aea0e3cbe3dbe80dd907d940ce39592504f58e045397e34b564736f6c634300081c0033",
  "linkReferences": {},
  "deployedLinkReferences": {},
  "immutableReferences": {},
  "inputSourceName": "project/contracts/AssetRegistry.sol",
  "buildInfoId": "solc-0_8_28-71718574d8fab5d40041e2074f9fa13f06d2c601"
}